{
  "contractName": "WasteManagement",
  "abi": [
    {
      "inputs": [],
      "payable": false,
      "stateMutability": "nonpayable",
      "type": "constructor"
    },
    {
      "anonymous": false,
      "inputs": [
        {
          "indexed": false,
          "internalType": "int256",
          "name": "totalCost",
          "type": "int256"
        }
      ],
      "name": "UpdateWalletBalance",
      "type": "event"
    },
    {
      "anonymous": false,
      "inputs": [
        {
          "indexed": false,
          "internalType": "uint256",
          "name": "id",
          "type": "uint256"
        },
        {
          "indexed": false,
          "internalType": "string",
          "name": "wasteMaterial",
          "type": "string"
        },
        {
          "indexed": false,
          "internalType": "int256",
          "name": "quantity",
          "type": "int256"
        },
        {
          "indexed": false,
          "internalType": "int256",
          "name": "cost",
          "type": "int256"
        }
      ],
      "name": "WasteDeposited",
      "type": "event"
    },
    {
      "constant": true,
      "inputs": [],
      "name": "id",
      "outputs": [
        {
          "internalType": "uint256",
          "name": "",
          "type": "uint256"
        }
      ],
      "payable": false,
      "stateMutability": "view",
      "type": "function"
    },
    {
      "constant": true,
      "inputs": [],
      "name": "totalCost",
      "outputs": [
        {
          "internalType": "int256",
          "name": "",
          "type": "int256"
        }
      ],
      "payable": false,
      "stateMutability": "view",
      "type": "function"
    },
    {
      "constant": true,
      "inputs": [
        {
          "internalType": "uint256",
          "name": "",
          "type": "uint256"
        }
      ],
      "name": "wastes",
      "outputs": [
        {
          "internalType": "uint256",
          "name": "wasteId",
          "type": "uint256"
        },
        {
          "internalType": "string",
          "name": "wasteMaterial",
          "type": "string"
        },
        {
          "internalType": "int256",
          "name": "quantity",
          "type": "int256"
        },
        {
          "internalType": "int256",
          "name": "cost",
          "type": "int256"
        }
      ],
      "payable": false,
      "stateMutability": "view",
      "type": "function"
    },
    {
      "constant": false,
      "inputs": [
        {
          "internalType": "string",
          "name": "_wasteMaterial",
          "type": "string"
        },
        {
          "internalType": "int256",
          "name": "_quantity",
          "type": "int256"
        },
        {
          "internalType": "int256",
          "name": "_cost",
          "type": "int256"
        }
      ],
      "name": "depositWaste",
      "outputs": [],
      "payable": false,
      "stateMutability": "nonpayable",
      "type": "function"
    },
    {
      "constant": false,
      "inputs": [
        {
          "internalType": "int256",
          "name": "_quantity",
          "type": "int256"
        },
        {
          "internalType": "int256",
          "name": "_cost",
          "type": "int256"
        }
      ],
      "name": "updateWalletBalance",
      "outputs": [],
      "payable": false,
      "stateMutability": "nonpayable",
      "type": "function"
    },
    {
      "constant": true,
      "inputs": [],
      "name": "get",
      "outputs": [
        {
          "internalType": "uint256",
          "name": "",
          "type": "uint256"
        }
      ],
      "payable": false,
      "stateMutability": "view",
      "type": "function"
    }
  ],
  "bytecode": "0x608060405260008055600060015534801561001957600080fd5b5061002b60008061003060201b60201c565b610085565b60008183029050806001600082825401925050819055507fae3d2b3dd22b4d855271cc0965e5cf4baa82840c241fb3807beb39e7d57d811d6001546040518082815260200191505060405180910390a1505050565b6105d0806100946000396000f3fe608060405234801561001057600080fd5b50600436106100625760003560e01c80631a1c7489146100675780633c5e6c97146101365780636d4ce63c1461015457806386d6c0bb146101725780638864d31a1461022e578063af640d0f14610266575b600080fd5b6101346004803603606081101561007d57600080fd5b810190808035906020019064010000000081111561009a57600080fd5b8201836020820111156100ac57600080fd5b803590602001918460018302840111640100000000831117156100ce57600080fd5b91908080601f016020809104026020016040519081016040528093929190818152602001838380828437600081840152601f19601f8201169050808301925050505050505091929192908035906020019092919080359060200190929190505050610284565b005b61013e6103c4565b6040518082815260200191505060405180910390f35b61015c6103ca565b6040518082815260200191505060405180910390f35b61019e6004803603602081101561018857600080fd5b81019080803590602001909291905050506103d3565b6040518085815260200180602001848152602001838152602001828103825285818151815260200191508051906020019080838360005b838110156101f05780820151818401526020810190506101d5565b50505050905090810190601f16801561021d5780820380516001836020036101000a031916815260200191505b509550505050505060405180910390f35b6102646004803603604081101561024457600080fd5b81019080803590602001909291908035906020019092919050505061049b565b005b61026e6104f0565b6040518082815260200191505060405180910390f35b6000808154809291906001019190505550604051806080016040528060005481526020018481526020018381526020018281525060026000805481526020019081526020016000206000820151816000015560208201518160010190805190602001906102f29291906104f6565b5060408201518160020155606082015181600301559050507e1b27a9f404312f36b7eedc1e6d9e2a8b6a5bbd4148f78263812df64c3bf4ef6000548484846040518085815260200180602001848152602001838152602001828103825285818151815260200191508051906020019080838360005b83811015610382578082015181840152602081019050610367565b50505050905090810190601f1680156103af5780820380516001836020036101000a031916815260200191505b509550505050505060405180910390a1505050565b60015481565b60008054905090565b6002602052806000526040600020600091509050806000015490806001018054600181600116156101000203166002900480601f0160208091040260200160405190810160405280929190818152602001828054600181600116156101000203166002900480156104855780601f1061045a57610100808354040283529160200191610485565b820191906000526020600020905b81548152906001019060200180831161046857829003601f168201915b5050505050908060020154908060030154905084565b60008183029050806001600082825401925050819055507fae3d2b3dd22b4d855271cc0965e5cf4baa82840c241fb3807beb39e7d57d811d6001546040518082815260200191505060405180910390a1505050565b60005481565b828054600181600116156101000203166002900490600052602060002090601f016020900481019282601f1061053757805160ff1916838001178555610565565b82800160010185558215610565579182015b82811115610564578251825591602001919060010190610549565b5b5090506105729190610576565b5090565b61059891905b8082111561059457600081600090555060010161057c565b5090565b9056fea265627a7a7231582078842e1aa76bc31ca0c3516526cce6fb05056ce2a7443639e21122fb624a693064736f6c63430005100032",
  "source": "pragma solidity ^0.5.0;\r\n\r\ncontract WasteManagement {\r\n    uint public id = 0;\r\n    int  public totalCost = 0;\r\n\r\n    struct Waste {\r\n        uint wasteId;\r\n        string wasteMaterial;\r\n        int quantity;\r\n        int  cost;\r\n    }\r\n\r\n\r\n    event WasteDeposited (uint id, string wasteMaterial, int quantity, int cost);\r\n\r\n    event UpdateWalletBalance (int totalCost);\r\n\r\n    mapping (uint => Waste) public wastes;\r\n\r\n    constructor () public{\r\n        updateWalletBalance(0,0);\r\n    }\r\n\r\n    function depositWaste (string memory _wasteMaterial, int _quantity, int _cost) public {\r\n        id ++;\r\n        wastes[id] = Waste(id, _wasteMaterial, _quantity, _cost);\r\n        emit WasteDeposited(id, _wasteMaterial, _quantity, _cost);\r\n    }\r\n\r\n    function updateWalletBalance (int _quantity, int _cost) public {\r\n        int transactionCost = _quantity * _cost;\r\n        totalCost += transactionCost;\r\n        emit UpdateWalletBalance (totalCost);\r\n    }\r\n\r\n    // uint storedData;\r\n\r\n    // function set(uint x) public {\r\n    // storedData = x;\r\n    // }\r\n\r\n    function get() public view returns (uint) {\r\n    return id;\r\n    }\r\n}",
  "sourcePath": "D:/UZH/Courses/Blockchain/Waste-Management/contracts/WasteManagement.sol",
  "compiler": {
    "name": "solc",
    "version": "0.5.16+commit.9c3226ce.Emscripten.clang"
  },
  "schemaVersion": "3.4.1",
  "updatedAt": "2021-05-19T22:49:43.300Z",
  "networkType": "ethereum",
  "devdoc": {
    "methods": {}
  },
  "userdoc": {
    "methods": {}
  }
}