{
  "contractName": "WasteManagement",
  "abi": [
    {
      "inputs": [],
      "payable": false,
      "stateMutability": "nonpayable",
      "type": "constructor"
    },
    {
      "anonymous": false,
      "inputs": [
        {
          "indexed": false,
          "internalType": "uint256",
          "name": "id",
          "type": "uint256"
        },
        {
          "indexed": false,
          "internalType": "string",
          "name": "wasteMaterial",
          "type": "string"
        },
        {
          "indexed": false,
          "internalType": "uint256",
          "name": "quantity",
          "type": "uint256"
        },
        {
          "indexed": false,
          "internalType": "int256",
          "name": "cost",
          "type": "int256"
        }
      ],
      "name": "WasteDeposited",
      "type": "event"
    },
    {
      "constant": true,
      "inputs": [],
      "name": "id",
      "outputs": [
        {
          "internalType": "uint256",
          "name": "",
          "type": "uint256"
        }
      ],
      "payable": false,
      "stateMutability": "view",
      "type": "function"
    },
    {
      "constant": true,
      "inputs": [],
      "name": "totalCost",
      "outputs": [
        {
          "internalType": "int256",
          "name": "",
          "type": "int256"
        }
      ],
      "payable": false,
      "stateMutability": "view",
      "type": "function"
    },
    {
      "constant": true,
      "inputs": [
        {
          "internalType": "uint256",
          "name": "",
          "type": "uint256"
        }
      ],
      "name": "wastes",
      "outputs": [
        {
          "internalType": "uint256",
          "name": "wasteId",
          "type": "uint256"
        },
        {
          "internalType": "string",
          "name": "wasteMaterial",
          "type": "string"
        },
        {
          "internalType": "uint256",
          "name": "quantity",
          "type": "uint256"
        },
        {
          "internalType": "int256",
          "name": "cost",
          "type": "int256"
        }
      ],
      "payable": false,
      "stateMutability": "view",
      "type": "function"
    },
    {
      "constant": false,
      "inputs": [
        {
          "internalType": "string",
          "name": "_wasteMaterial",
          "type": "string"
        }
      ],
      "name": "depositWaste",
      "outputs": [],
      "payable": false,
      "stateMutability": "nonpayable",
      "type": "function"
    },
    {
      "constant": true,
      "inputs": [],
      "name": "get",
      "outputs": [
        {
          "internalType": "uint256",
          "name": "",
          "type": "uint256"
        }
      ],
      "payable": false,
      "stateMutability": "view",
      "type": "function"
    }
  ],
  "bytecode": "0x60806040526000805534801561001457600080fd5b506100596040518060400160405280601481526020017f4e6f6e2d52656379636c61626c6520576173746500000000000000000000000081525061005e60201b60201c565b610284565b600080815480929190600101919050555060405180608001604052806000548152602001828152602001600181526020017ffffffffffffffffffffffffffffffffffffffffffffffffffffffffffffffff681525060026000805481526020019081526020016000206000820151816000015560208201518160010190805190602001906100ed9291906101df565b5060408201518160020155606082015181600301559050507fefa060fbde8b2ce6839a2514f4e0bab205e6374d5d3e6b53e14a5748195eda5c6000548260017ffffffffffffffffffffffffffffffffffffffffffffffffffffffffffffffff66040518085815260200180602001848152602001838152602001828103825285818151815260200191508051906020019080838360005b8381101561019f578082015181840152602081019050610184565b50505050905090810190601f1680156101cc5780820380516001836020036101000a031916815260200191505b509550505050505060405180910390a150565b828054600181600116156101000203166002900490600052602060002090601f016020900481019282601f1061022057805160ff191683800117855561024e565b8280016001018555821561024e579182015b8281111561024d578251825591602001919060010190610232565b5b50905061025b919061025f565b5090565b61028191905b8082111561027d576000816000905550600101610265565b5090565b90565b610565806102936000396000f3fe608060405234801561001057600080fd5b50600436106100575760003560e01c80633c5e6c971461005c5780635c61940f1461007a5780636d4ce63c1461013557806386d6c0bb14610153578063af640d0f1461020f575b600080fd5b61006461022d565b6040518082815260200191505060405180910390f35b6101336004803603602081101561009057600080fd5b81019080803590602001906401000000008111156100ad57600080fd5b8201836020820111156100bf57600080fd5b803590602001918460018302840111640100000000831117156100e157600080fd5b91908080601f016020809104026020016040519081016040528093929190818152602001838380828437600081840152601f19601f820116905080830192505050505050509192919290505050610233565b005b61013d6103b4565b6040518082815260200191505060405180910390f35b61017f6004803603602081101561016957600080fd5b81019080803590602001909291905050506103bd565b6040518085815260200180602001848152602001838152602001828103825285818151815260200191508051906020019080838360005b838110156101d15780820151818401526020810190506101b6565b50505050905090810190601f1680156101fe5780820380516001836020036101000a031916815260200191505b509550505050505060405180910390f35b610217610485565b6040518082815260200191505060405180910390f35b60015481565b600080815480929190600101919050555060405180608001604052806000548152602001828152602001600181526020017ffffffffffffffffffffffffffffffffffffffffffffffffffffffffffffffff681525060026000805481526020019081526020016000206000820151816000015560208201518160010190805190602001906102c292919061048b565b5060408201518160020155606082015181600301559050507fefa060fbde8b2ce6839a2514f4e0bab205e6374d5d3e6b53e14a5748195eda5c6000548260017ffffffffffffffffffffffffffffffffffffffffffffffffffffffffffffffff66040518085815260200180602001848152602001838152602001828103825285818151815260200191508051906020019080838360005b83811015610374578082015181840152602081019050610359565b50505050905090810190601f1680156103a15780820380516001836020036101000a031916815260200191505b509550505050505060405180910390a150565b60008054905090565b6002602052806000526040600020600091509050806000015490806001018054600181600116156101000203166002900480601f01602080910402602001604051908101604052809291908181526020018280546001816001161561010002031660029004801561046f5780601f106104445761010080835404028352916020019161046f565b820191906000526020600020905b81548152906001019060200180831161045257829003601f168201915b5050505050908060020154908060030154905084565b60005481565b828054600181600116156101000203166002900490600052602060002090601f016020900481019282601f106104cc57805160ff19168380011785556104fa565b828001600101855582156104fa579182015b828111156104f95782518255916020019190600101906104de565b5b509050610507919061050b565b5090565b61052d91905b80821115610529576000816000905550600101610511565b5090565b9056fea265627a7a72315820f2ae810e278a4dec693d87a47a91e72d198b0108500e639cccaad3a1def4885464736f6c63430005100032",
  "source": "pragma solidity ^0.5.0;\r\n\r\ncontract WasteManagement {\r\n    uint public id = 0;\r\n    int  public totalCost;\r\n\r\n    struct Waste {\r\n        uint wasteId;\r\n        string wasteMaterial;\r\n        uint quantity;\r\n        int  cost;\r\n    }\r\n\r\n\r\n    event WasteDeposited (uint id, string wasteMaterial, uint quantity, int cost);\r\n\r\n    mapping (uint => Waste) public wastes;\r\n\r\n    constructor () public{\r\n        depositWaste(\"Non-Recyclable Waste\");\r\n    }\r\n\r\n    function depositWaste (string memory _wasteMaterial) public {\r\n        id ++;\r\n        wastes[id] = Waste(id, _wasteMaterial, 1, -10);\r\n        emit WasteDeposited(id, _wasteMaterial, 1, -10);\r\n    }\r\n\r\n    // uint storedData;\r\n\r\n    // function set(uint x) public {\r\n    // storedData = x;\r\n    // }\r\n\r\n    function get() public view returns (uint) {\r\n    return id;\r\n    }\r\n}",
  "sourcePath": "D:/UZH/Courses/Blockchain/Waste-Management/contracts/WasteManagement.sol",
  "compiler": {
    "name": "solc",
    "version": "0.5.16+commit.9c3226ce.Emscripten.clang"
  },
  "schemaVersion": "3.4.1",
  "updatedAt": "2021-05-19T08:53:01.463Z",
  "networkType": "ethereum",
  "devdoc": {
    "methods": {}
  },
  "userdoc": {
    "methods": {}
  }
}